{
  "contractName": "Adoption",
  "abi": [
    {
      "inputs": [
        {
          "internalType": "uint256",
          "name": "",
          "type": "uint256"
        }
      ],
      "name": "_borrowedBooks",
      "outputs": [
        {
          "internalType": "uint256",
          "name": "",
          "type": "uint256"
        }
      ],
      "stateMutability": "view",
      "type": "function",
      "constant": true
    },
    {
      "inputs": [
        {
          "internalType": "address",
          "name": "",
          "type": "address"
        }
      ],
      "name": "_borrowerToBookId",
      "outputs": [
        {
          "internalType": "uint256",
          "name": "",
          "type": "uint256"
        }
      ],
      "stateMutability": "view",
      "type": "function",
      "constant": true
    },
    {
      "inputs": [
        {
          "internalType": "uint256",
          "name": "",
          "type": "uint256"
        }
      ],
      "name": "_borrowers",
      "outputs": [
        {
          "internalType": "address",
          "name": "",
          "type": "address"
        }
      ],
      "stateMutability": "view",
      "type": "function",
      "constant": true
    },
    {
      "inputs": [
        {
          "internalType": "uint256",
          "name": "",
          "type": "uint256"
        }
      ],
      "name": "_item",
      "outputs": [
        {
          "internalType": "uint256",
          "name": "bookId",
          "type": "uint256"
        },
        {
          "internalType": "uint256",
          "name": "timeOfReturn",
          "type": "uint256"
        },
        {
          "internalType": "address",
          "name": "borrower",
          "type": "address"
        }
      ],
      "stateMutability": "view",
      "type": "function",
      "constant": true
    },
    {
      "inputs": [
        {
          "internalType": "uint256",
          "name": "",
          "type": "uint256"
        },
        {
          "internalType": "uint256",
          "name": "",
          "type": "uint256"
        }
      ],
      "name": "_leger",
      "outputs": [
        {
          "internalType": "uint256",
          "name": "bookId",
          "type": "uint256"
        },
        {
          "internalType": "uint256",
          "name": "timeOfReturn",
          "type": "uint256"
        },
        {
          "internalType": "address",
          "name": "borrower",
          "type": "address"
        }
      ],
      "stateMutability": "view",
      "type": "function",
      "constant": true
    },
    {
      "inputs": [],
      "name": "getBorrowedBookIds",
      "outputs": [
        {
          "internalType": "uint256[]",
          "name": "",
          "type": "uint256[]"
        }
      ],
      "stateMutability": "view",
      "type": "function",
      "constant": true
    },
    {
      "inputs": [],
      "name": "getBorrowers",
      "outputs": [
        {
          "internalType": "address[]",
          "name": "",
          "type": "address[]"
        }
      ],
      "stateMutability": "view",
      "type": "function",
      "constant": true
    },
    {
      "inputs": [
        {
          "internalType": "uint256",
          "name": "bookId",
          "type": "uint256"
        }
      ],
      "name": "getLastLeger",
      "outputs": [
        {
          "components": [
            {
              "internalType": "uint256",
              "name": "bookId",
              "type": "uint256"
            },
            {
              "internalType": "uint256",
              "name": "timeOfReturn",
              "type": "uint256"
            },
            {
              "internalType": "address",
              "name": "borrower",
              "type": "address"
            }
          ],
          "internalType": "struct Adoption.BookHistory",
          "name": "",
          "type": "tuple"
        }
      ],
      "stateMutability": "view",
      "type": "function",
      "constant": true
    },
    {
      "inputs": [
        {
          "internalType": "uint256[]",
          "name": "bookIds",
          "type": "uint256[]"
        }
      ],
      "name": "getLegers",
      "outputs": [
        {
          "components": [
            {
              "internalType": "uint256",
              "name": "bookId",
              "type": "uint256"
            },
            {
              "internalType": "uint256",
              "name": "timeOfReturn",
              "type": "uint256"
            },
            {
              "internalType": "address",
              "name": "borrower",
              "type": "address"
            }
          ],
          "internalType": "struct Adoption.BookHistory[][]",
          "name": "",
          "type": "tuple[][]"
        }
      ],
      "stateMutability": "view",
      "type": "function",
      "constant": true
    },
    {
      "inputs": [
        {
          "internalType": "uint256",
          "name": "bookId",
          "type": "uint256"
        }
      ],
      "name": "getLeger",
      "outputs": [
        {
          "components": [
            {
              "internalType": "uint256",
              "name": "bookId",
              "type": "uint256"
            },
            {
              "internalType": "uint256",
              "name": "timeOfReturn",
              "type": "uint256"
            },
            {
              "internalType": "address",
              "name": "borrower",
              "type": "address"
            }
          ],
          "internalType": "struct Adoption.BookHistory[]",
          "name": "",
          "type": "tuple[]"
        }
      ],
      "stateMutability": "view",
      "type": "function",
      "constant": true
    },
    {
      "inputs": [
        {
          "internalType": "uint256",
          "name": "bookId",
          "type": "uint256"
        }
      ],
      "name": "checkBookHistry",
      "outputs": [
        {
          "internalType": "bool",
          "name": "",
          "type": "bool"
        }
      ],
      "stateMutability": "view",
      "type": "function",
      "constant": true
    },
    {
      "inputs": [
        {
          "internalType": "uint256",
          "name": "bookId",
          "type": "uint256"
        }
      ],
      "name": "borrow",
      "outputs": [
        {
          "internalType": "uint256",
          "name": "",
          "type": "uint256"
        }
      ],
      "stateMutability": "nonpayable",
      "type": "function"
    }
  ],
  "bytecode": "0x608060405234801561001057600080fd5b5061151b806100206000396000f3fe608060405234801561001057600080fd5b50600436106100b25760003560e01c806374879c4a1161007157806374879c4a146101b5578063a3f03613146101e5578063ae4601f714610215578063c5ebeaec14610247578063e187ab1814610277578063fecdd8f2146102a7576100b2565b806264ec2b146100b7578062c5b530146100e75780634af16a2b146101055780634f9f96f7146101375780635967f925146101675780636854786a14610197575b600080fd5b6100d160048036038101906100cc9190610d9a565b6102d7565b6040516100de91906111d5565b60405180910390f35b6100ef6103dc565b6040516100fc9190611198565b60405180910390f35b61011f600480360381019061011a9190610d9a565b610434565b60405161012e9392919061120b565b60405180910390f35b610151600480360381019061014c9190610d9a565b61048e565b60405161015e9190611117565b60405180910390f35b610181600480360381019061017c9190610d9a565b6104cd565b60405161018e91906111ba565b60405180910390f35b61019f610500565b6040516101ac9190611132565b60405180910390f35b6101cf60048036038101906101ca9190610d9a565b61058e565b6040516101dc9190611176565b60405180910390f35b6101ff60048036038101906101fa9190610d30565b61066a565b60405161020c91906111f0565b60405180910390f35b61022f600480360381019061022a9190610dc3565b610682565b60405161023e9392919061120b565b60405180910390f35b610261600480360381019061025c9190610d9a565b6106e9565b60405161026e91906111f0565b60405180910390f35b610291600480360381019061028c9190610d59565b6109bd565b60405161029e9190611154565b60405180910390f35b6102c160048036038101906102bc9190610d9a565b610af4565b6040516102ce91906111f0565b60405180910390f35b6102df610b18565b6000600160036000858152602001908152602001600020805490506103049190611394565b9050600360008481526020019081526020016000208181548110610351577f4e487b7100000000000000000000000000000000000000000000000000000000600052603260045260246000fd5b906000526020600020906003020160405180606001604052908160008201548152602001600182015481526020016002820160009054906101000a900473ffffffffffffffffffffffffffffffffffffffff1673ffffffffffffffffffffffffffffffffffffffff1673ffffffffffffffffffffffffffffffffffffffff1681525050915050919050565b6060600480548060200260200160405190810160405280929190818152602001828054801561042a57602002820191906000526020600020905b815481526020019060010190808311610416575b5050505050905090565b6002818154811061044457600080fd5b90600052602060002090600302016000915090508060000154908060010154908060020160009054906101000a900473ffffffffffffffffffffffffffffffffffffffff16905083565b6001818154811061049e57600080fd5b906000526020600020016000915054906101000a900473ffffffffffffffffffffffffffffffffffffffff1681565b600080600360008481526020019081526020016000208054905011156104f657600190506104fb565b600090505b919050565b6060600180548060200260200160405190810160405280929190818152602001828054801561058457602002820191906000526020600020905b8160009054906101000a900473ffffffffffffffffffffffffffffffffffffffff1673ffffffffffffffffffffffffffffffffffffffff168152602001906001019080831161053a575b5050505050905090565b606060036000838152602001908152602001600020805480602002602001604051908101604052809291908181526020016000905b8282101561065f578382906000526020600020906003020160405180606001604052908160008201548152602001600182015481526020016002820160009054906101000a900473ffffffffffffffffffffffffffffffffffffffff1673ffffffffffffffffffffffffffffffffffffffff1673ffffffffffffffffffffffffffffffffffffffff1681525050815260200190600101906105c3565b505050509050919050565b60006020528060005260406000206000915090505481565b6003602052816000526040600020818154811061069e57600080fd5b9060005260206000209060030201600091509150508060000154908060010154908060020160009054906101000a900473ffffffffffffffffffffffffffffffffffffffff16905083565b6000816000803373ffffffffffffffffffffffffffffffffffffffff1673ffffffffffffffffffffffffffffffffffffffff168152602001908152602001600020819055506001339080600181540180825580915050600190039060005260206000200160009091909190916101000a81548173ffffffffffffffffffffffffffffffffffffffff021916908373ffffffffffffffffffffffffffffffffffffffff1602179055506000600360008481526020019081526020016000208054905011156108a85760006003600084815260200190815260200160002090508060405180606001604052808581526020014281526020013373ffffffffffffffffffffffffffffffffffffffff168152509080600181540180825580915050600190039060005260206000209060030201600090919091909150600082015181600001556020820151816001015560408201518160020160006101000a81548173ffffffffffffffffffffffffffffffffffffffff021916908373ffffffffffffffffffffffffffffffffffffffff160217905550505080600360008581526020019081526020016000209080546108a1929190610b4f565b505061098c565b600060405180606001604052808481526020014281526020013373ffffffffffffffffffffffffffffffffffffffff1681525090506002819080600181540180825580915050600190039060005260206000209060030201600090919091909150600082015181600001556020820151816001015560408201518160020160006101000a81548173ffffffffffffffffffffffffffffffffffffffff021916908373ffffffffffffffffffffffffffffffffffffffff1602179055505050600260036000858152602001908152602001600020908054610989929190610b4f565b50505b6004829080600181540180825580915050600190039060005260206000200160009091909190915055429050919050565b60606000825167ffffffffffffffff811115610a02577f4e487b7100000000000000000000000000000000000000000000000000000000600052604160045260246000fd5b604051908082528060200260200182016040528015610a3557816020015b6060815260200190600190039081610a205790505b50905060005b8351811015610aea576000610a8f858381518110610a82577f4e487b7100000000000000000000000000000000000000000000000000000000600052603260045260246000fd5b602002602001015161058e565b905080838381518110610acb577f4e487b7100000000000000000000000000000000000000000000000000000000600052603260045260246000fd5b6020026020010181905250508080610ae290611410565b915050610a3b565b5080915050919050565b60048181548110610b0457600080fd5b906000526020600020016000915090505481565b60405180606001604052806000815260200160008152602001600073ffffffffffffffffffffffffffffffffffffffff1681525090565b828054828255906000526020600020906003028101928215610c115760005260206000209160030282015b82811115610c1057828260008201548160000155600182015481600101556002820160009054906101000a900473ffffffffffffffffffffffffffffffffffffffff168160020160006101000a81548173ffffffffffffffffffffffffffffffffffffffff021916908373ffffffffffffffffffffffffffffffffffffffff160217905550505091600301919060030190610b7a565b5b509050610c1e9190610c22565b5090565b5b80821115610c6c5760008082016000905560018201600090556002820160006101000a81549073ffffffffffffffffffffffffffffffffffffffff021916905550600301610c23565b5090565b6000610c83610c7e84611273565b611242565b90508083825260208201905082856020860282011115610ca257600080fd5b60005b85811015610cd25781610cb88882610d1b565b845260208401935060208301925050600181019050610ca5565b5050509392505050565b600081359050610ceb816114b7565b92915050565b600082601f830112610d0257600080fd5b8135610d12848260208601610c70565b91505092915050565b600081359050610d2a816114ce565b92915050565b600060208284031215610d4257600080fd5b6000610d5084828501610cdc565b91505092915050565b600060208284031215610d6b57600080fd5b600082013567ffffffffffffffff811115610d8557600080fd5b610d9184828501610cf1565b91505092915050565b600060208284031215610dac57600080fd5b6000610dba84828501610d1b565b91505092915050565b60008060408385031215610dd657600080fd5b6000610de485828601610d1b565b9250506020610df585828601610d1b565b9150509250929050565b6000610e0b8383610e5b565b60208301905092915050565b6000610e238383610f4c565b905092915050565b6000610e378383611075565b60608301905092915050565b6000610e4f83836110f9565b60208301905092915050565b610e64816113c8565b82525050565b610e73816113c8565b82525050565b6000610e84826112df565b610e8e818561133f565b9350610e998361129f565b8060005b83811015610eca578151610eb18882610dff565b9750610ebc8361130b565b925050600181019050610e9d565b5085935050505092915050565b6000610ee2826112ea565b610eec8185611350565b935083602082028501610efe856112af565b8060005b85811015610f3a5784840389528151610f1b8582610e17565b9450610f2683611318565b925060208a01995050600181019050610f02565b50829750879550505050505092915050565b6000610f57826112f5565b610f618185611361565b9350610f6c836112bf565b8060005b83811015610f9d578151610f848882610e2b565b9750610f8f83611325565b925050600181019050610f70565b5085935050505092915050565b6000610fb5826112f5565b610fbf8185611372565b9350610fca836112bf565b8060005b83811015610ffb578151610fe28882610e2b565b9750610fed83611325565b925050600181019050610fce565b5085935050505092915050565b600061101382611300565b61101d8185611383565b9350611028836112cf565b8060005b838110156110595781516110408882610e43565b975061104b83611332565b92505060018101905061102c565b5085935050505092915050565b61106f816113da565b82525050565b60608201600082015161108b60008501826110f9565b50602082015161109e60208501826110f9565b5060408201516110b16040850182610e5b565b50505050565b6060820160008201516110cd60008501826110f9565b5060208201516110e060208501826110f9565b5060408201516110f36040850182610e5b565b50505050565b61110281611406565b82525050565b61111181611406565b82525050565b600060208201905061112c6000830184610e6a565b92915050565b6000602082019050818103600083015261114c8184610e79565b905092915050565b6000602082019050818103600083015261116e8184610ed7565b905092915050565b600060208201905081810360008301526111908184610faa565b905092915050565b600060208201905081810360008301526111b28184611008565b905092915050565b60006020820190506111cf6000830184611066565b92915050565b60006060820190506111ea60008301846110b7565b92915050565b60006020820190506112056000830184611108565b92915050565b60006060820190506112206000830186611108565b61122d6020830185611108565b61123a6040830184610e6a565b949350505050565b6000604051905081810181811067ffffffffffffffff8211171561126957611268611488565b5b8060405250919050565b600067ffffffffffffffff82111561128e5761128d611488565b5b602082029050602081019050919050565b6000819050602082019050919050565b6000819050602082019050919050565b6000819050602082019050919050565b6000819050602082019050919050565b600081519050919050565b600081519050919050565b600081519050919050565b600081519050919050565b6000602082019050919050565b6000602082019050919050565b6000602082019050919050565b6000602082019050919050565b600082825260208201905092915050565b600082825260208201905092915050565b600082825260208201905092915050565b600082825260208201905092915050565b600082825260208201905092915050565b600061139f82611406565b91506113aa83611406565b9250828210156113bd576113bc611459565b5b828203905092915050565b60006113d3826113e6565b9050919050565b60008115159050919050565b600073ffffffffffffffffffffffffffffffffffffffff82169050919050565b6000819050919050565b600061141b82611406565b91507fffffffffffffffffffffffffffffffffffffffffffffffffffffffffffffffff82141561144e5761144d611459565b5b600182019050919050565b7f4e487b7100000000000000000000000000000000000000000000000000000000600052601160045260246000fd5b7f4e487b7100000000000000000000000000000000000000000000000000000000600052604160045260246000fd5b6114c0816113c8565b81146114cb57600080fd5b50565b6114d781611406565b81146114e257600080fd5b5056fea264697066735822122066b08b05113b3f2c597572ea92f4f42d9e5918408e707f1b89c7164f8383abfa64736f6c63430008000033",
  "immutableReferences": {},
  "source": "// SPDX-License-Identifier: MIT\r\npragma solidity ^0.8.0;\r\n\r\nimport \"hardhat/console.sol\";\r\n\r\ncontract Adoption {\r\n    struct BookHistory {\r\n        uint bookId;\r\n        uint timeOfReturn;\r\n        address borrower;\r\n    }\r\n    mapping(address => uint) public _borrowerToBookId;\r\n    address[] public _borrowers;\r\n    BookHistory[] public _item;\r\n    mapping(uint => BookHistory[]) public _leger;\r\n    uint[] public _borrowedBooks;\r\n   \r\n\r\n    function getBorrowedBookIds() public view returns (uint[] memory) {\r\n        return _borrowedBooks;\r\n    }\r\n\r\n    function getBorrowers() public view returns (address[] memory) {\r\n        return _borrowers;\r\n    }\r\n\r\n    function getLastLeger(uint bookId) public view returns (BookHistory memory) {\r\n        uint lastItem = _leger[bookId].length -1;\r\n        return _leger[bookId][lastItem];\r\n    }\r\n\r\n    function getLegers(uint[] memory bookIds) public view returns (BookHistory[][] memory) {\r\n        \r\n        BookHistory[][] memory books = new BookHistory[][](bookIds.length);\r\n        for (uint i = 0; i < bookIds.length; i++) {\r\n            BookHistory[] memory book = getLeger(bookIds[i]);\r\n            books[i] = book;\r\n        }\r\n        \r\n        return books;\r\n    }\r\n\r\n    function getLeger(uint bookId) public view returns (BookHistory[] memory) {\r\n        return _leger[bookId];\r\n    }\r\n\r\n    function checkBookHistry(uint bookId) public view returns (bool) {\r\n        if(_leger[bookId].length > 0) {\r\n            return true;\r\n        }\r\n\r\n        return false;\r\n    }\r\n\r\n    function borrow(uint bookId) public returns (uint) {\r\n        _borrowerToBookId[msg.sender] = bookId;\r\n        _borrowers.push(msg.sender);\r\n        if(_leger[bookId].length > 0) {\r\n            BookHistory[] storage history = _leger[bookId];\r\n            history.push(BookHistory(bookId, block.timestamp, msg.sender));\r\n            _leger[bookId] = history;\r\n        } else {\r\n            BookHistory memory b = BookHistory(bookId, block.timestamp, msg.sender);\r\n            _item.push(b);\r\n            _leger[bookId] = _item;\r\n        }\r\n        _borrowedBooks.push(bookId);\r\n        return block.timestamp;\r\n    }\r\n}",
  "sourcePath": "C:\\Users\\fkonk\\Documents\\source\\tutorial-hardhat\\contracts\\Adoption.sol",
  "compiler": {
    "name": "solc",
    "version": "0.8.0+commit.c7dfd78e.Emscripten.clang"
  },
  "schemaVersion": "3.4.4",
  "updatedAt": "2022-01-03T16:53:26.502Z",
  "networkType": "ethereum",
  "devdoc": {
    "kind": "dev",
    "methods": {},
    "version": 1
  },
  "userdoc": {
    "kind": "user",
    "methods": {},
    "version": 1
  }
}